:020000040800F2
:100000004004002045010008510F00085309000872
:100010004D0F00082D050008AB1D00080000000072
:10002000000000000000000000000000351900087A
:100030008D07000800000000E50F0008491A0008BD
:100040005F0100085F0100085F0100087D130008E0
:100050005F0100085F0100085F0100085F01000800
:100060005F0100085F0100085F0100085F010008F0
:100070005F0100085F0100085F0100085F010008E0
:100080005F0100085F0100085F0100085F010008D0
:100090005F0100085F0100085F0100085F010008C0
:1000A0005F0100085F0100085F0100085F010008B0
:1000B0005F0100085F0100085F0100085F010008A0
:1000C0005F0100085F0100085F0100085F01000890
:1000D0005F010008E91A00085F0100085F010008DD
:1000E0005F0100085F0100085F0100085F01000870
:1000F0005F0100085F0100085F0100085F01000860
:100100005F0100085F0100085F0100085F0100084F
:100110005F0100085F0100085F0100085F0100083F
:100120005F0100085F0100085F0100085F0100082F
:10013000DFF80CD000F0A4F90048004701200008C7
:10014000400400200648804706480047FEE7FEE7D7
:10015000FEE7FEE7FEE7FEE7FEE7FEE7FEE7FEE777
:10016000891A00083101000880EA010210B502F086
:100170000043400022D04A001FD0010E01EB126163
:10018000C0F35600C2F3560240F4000042F40002ED
:10019000A0FB022000047F39140400D0401C50EA68
:1001A000124001D44000491EC2B20C0604EBD0102C
:1001B000401C4008802A02D003E0002010BD20F03F
:1001C0000100002900DA0020184310BD2DE9FE4F80
:1001D00081EA030404F0004421F0004100944FF050
:1001E000000B23F0004350EA01045ED052EA0304FE
:1001F0005BD0C3F30A54C1F30A552C44A4F2F33480
:100200000194A0FB0254C1F3130141F48011C3F324
:10021000130343F4801301FB024400FB034E840AE2
:10022000970A44EA815447EA8357A4FB076802957A
:100230008D0A05FB07854FEA932C04FB0C54270518
:10024000029D4FEA065847EA1637B5EB08056EEBF4
:10025000070C870E920E47EA811742EA8312A7FB2A
:100260000201B6EB0B0164EB00042B0D43EA0C33E7
:100270005E1844EB1C50DA465146E7FB0201C5F319
:1002800013044FEA0B3343EA14534FEA0432019C40
:1002900043EA0603A4F10C040294009CCDE900B4E7
:1002A00000F09FF803B0BDE8F08F00200146F9E7A9
:1002B0000EB540F2334102910021CDE900110A460A
:1002C0000B4600F08EF803B000BD20F00040C10DD9
:1002D000C0F3160040F400007F2901DA00207047C7
:1002E000962903DCC1F19601C840704796398840D1
:1002F000704701F0004330B421F0004150EA0102A0
:1003000006D00A0DA2F56072C1F31301002A02DCC7
:1003100030BC00207047440F44EAC104C100E0181B
:1003200030BC00EBC25000F016B830B50B460146A9
:1003300000202022012409E021FA02F59D4205D384
:1003400003FA02F5491B04FA02F52844151EA2F12E
:100350000102F1DC30BD0029A8BF7047401C4900F4
:1003600008BF20F00100704710B4B0FA80FC00FA1A
:100370000CF050EA010404BF10BC704749B1CCF145
:10038000200421FA04F411FA0CF118BF01212143D1
:100390000843A3EB0C01CB1D4FEA00614FEA10208C
:1003A00042BF002010BC704700EBC350104400292E
:1003B000A4BF10BC7047401C490008BF20F00100DA
:1003C00010BC704710B5141E73F1000408DA401C0D
:1003D00041F1000192185B411A4301D120F0010064
:1003E00010BD2DE9F04D92469B4611B1B1FA81F254
:1003F00002E0B0FA80F22032904600F053F8044652
:100400000F4640EA0A0041EA0B0153465A460843A8
:1004100013D0114653EA010019D0C8F140025046EA
:1004200000F04FF805460E4650465946424600F049
:1004300039F8084305D0012004E020463946BDE8DC
:10044000F08D0020054346EAE0762C4337430A98B6
:100450006305E40AA0EB08000022FD0A44EA4754C1
:100460000A3002D500200146E9E70105101969416B
:10047000DDE9084500196941BDE8F04DA2E700003B
:10048000064C074D06E0E06840F0010394E80700E1
:1004900098471034AC42F6D3FFF74EFE20290008EF
:1004A00040290008202A04DB203A00FA02F100204B
:1004B00070479140C2F1200320FA03F319439040A2
:1004C0007047202A04DB203A21FA02F0002170470D
:1004D00021FA02F3D040C2F12002914008431946AC
:1004E000704710B5012000F09FFD002000F09CFD3A
:1004F00010BD000008B501460020009003480090A0
:100500000098084400900098008808BD006C0040E6
:1005100008B500220092044A0092009A0244009218
:10052000009A116008BD0000006C004000BFFEE7AB
:1005300010B5002400F064F804E0601CC4B201208F
:1005400001F026FD0D48006808B1C82CF5DBC82C69
:1005500001DB012010BD002404E0601CC4B20120B6
:1005600001F016FD0548006808B9F02CF5DBF02C09
:1005700001DB0120EEE70020ECE700003C01214216
:100580002DE9F05F00F0C8F800F0B0F8FFF7D0FFF9
:10059000CC2000F0CDF8BE2000F0CAF800F094F8AE
:1005A000834600F091F8824654460BEB042084B257
:1005B00004F47840B0F5784F0FD1E043401C84B28A
:1005C0002046FFF775FE074600220B4BFFF7FEFDA6
:1005D0000546FFF78EFE81460BE02046FFF768FEDA
:1005E00005460022054BFFF7F1FD0746FFF781FEA8
:1005F00081464846BDE8F09F0000B0BF0000B03F14
:1006000008B54FF40040ADF8000048208DF8030015
:100610006946024800F0BBF808BD00000008014030
:1006200008B54FF40040ADF8000003208DF802003B
:1006300010208DF803006946014800F0A8F808BDB5
:100640000008014008B50121042000F0DDFC012173
:100650000A4800F027F94FF40040ADF800000320ED
:100660008DF8020010208DF803006946044800F060
:100670008EF800F03BF8FFF75BFF08BD0004300088
:100680000008014010B5FFF7CBFF00200C490860BF
:10069000022001F07DFC01200A49C1F8BC01FFF7EE
:1006A000AFFF0C2001F074FC05488038006808B1E9
:1006B000012400E00024322001F06AFC204610BD35
:1006C000BC0121420000214270B50026012508E04E
:1006D000FFF7D8FF0446E00140EA6600C6B2681C96
:1006E000C5B2082DF4DD304670BD000010B5FFF72F
:1006F00097FF00200649086040F2EE2001F048FC18
:1007000001200449C1F8BC010F2001F041FC10BDDB
:10071000BC0121420000214210B5FFF7E7FFFFF7BF
:1007200007FFCC2000F004F8442000F001F810BDD1
:1007300070B50446FFF774FF012520E004F00106C0
:1007400064106EB100200F490860022001F020FC07
:1007500001200D49C1F8BC013C2001F019FC0CE05E
:100760000020084908603C2001F012FC01200649E5
:10077000C1F8BC01022001F00BFC681CC5B2082DB9
:10078000DCDD70BDBC0121420000214270472DE933
:10079000F041024600250026002000230024002707
:1007A00091F803C00CF00F0591F803C00CF0100C89
:1007B000BCF1000F03D091F802C04CEA050591F896
:1007C00000C0BCF1000F31D0146800202BE04FF0C6
:1007D000010C0CFA00F3B1F800C00CEA03069E42CB
:1007E00020D183004FF00F0C0CFA03F7BC4305FA3D
:1007F00003FC4CEA040491F803C0BCF1280F06D1B5
:100800004FF0010C0CFA00FCC2F814C00AE091F899
:1008100003C0BCF1480F05D14FF0010C0CFA00FCED
:10082000C2F810C0401C0828D1D31460B1F800C031
:10083000BCF1FF0F34DD546800202EE000F1080CFD
:100840004FF0010808FA0CF3B1F800C00CEA0306F7
:100850009E4221D183004FF00F0C0CFA03F7BC43EA
:1008600005FA03FC4CEA040491F803C0BCF1280F1C
:1008700005D100F1080C08FA0CF8C2F8148091F8C0
:1008800003C0BCF1480F07D100F1080C4FF001087C
:1008900008FA0CF8C2F81080401C0828CED3546027
:1008A000BDE8F081F0B50A460023002400210025B0
:1008B00000F00046B6F1004F02D11D4EF16901E093
:1008C0001B4E7168C0F3034583B200F44016B6F5C1
:1008D000401F08D121F07061154E766826F07066D1
:1008E000134F7E6012E000F48016B6F5801F06D12B
:1008F000032606FA05F4A14341F0706106E0460DB7
:10090000360103FA06F6B14341F0706122B1460D9B
:10091000360103FA06F6314300F00046B6F1004F07
:1009200002D1034EF16101E0014E7160F0BD0000A3
:10093000000001400246002093680B400BB10120EB
:1009400000E0002070474161704701617047C1605D
:10095000704700BFFEE70146CA1701EB9272921082
:10096000A1EB820292B9642091FBF0F200FB12101D
:1009700050B94FF4C87091FBF0F200FB121008B9A7
:10098000012070470020FCE70120FAE70020F8E78B
:1009900008B50121042000F037FB0F20ADF800005E
:1009A00003208DF8020010208DF8030069460B48E3
:1009B000FFF7EDFE0F210948FFF7C7FFF020ADF864
:1009C000000048208DF8030069460448FFF7DFFE69
:1009D000F0210248FFF7B9FF08BD00000008014000
:1009E00010B50446FE21D548FFF7B1FF1021D348CA
:1009F000FFF7A0FF78B12021D048FFF79BFF50B14F
:100A00004021CE48FFF796FF28B18021CB48FFF761
:100A100091FF002850D10A2001F094FA1021C74814
:100A2000FFF788FF58B90120C5490870207000BF42
:100A30001021C248FFF77EFF0028F9D03CE02021BA
:100A4000BE48FFF777FF60B90120BD49087002205A
:100A5000207000BF2021B948FFF76CFF0028F9D0B3
:100A60002AE04021B548FFF765FF60B90120B4498D
:100A700008700320207000BF4021B048FFF75AFFE4
:100A80000028F9D018E08021AC48FFF753FF60B987
:100A90000120AB4908700420207000BF8021A748C6
:100AA000FFF748FF0028F9D006E00020A4490870AD
:100AB000FF21A248FFF74BFFFD21A048FFF747FFAA
:100AC00010219E48FFF736FF78B120219B48FFF7A1
:100AD00031FF50B140219948FFF72CFF28B1802108
:100AE0009648FFF727FF002851D10A2001F02AFA83
:100AF00010219248FFF71EFF60B90120904908704D
:100B00000520207000BF10218C48FFF713FF00283C
:100B1000F9D03CE020218948FFF70CFF60B90120A3
:100B2000874908700620207000BF20218348FFF706
:100B300001FF0028F9D02AE040218048FFF7FAFEA3
:100B400060B901207E4908700720207000BF402155
:100B50007A48FFF7EFFE0028F9D018E080217748A7
:100B6000FFF7E8FE60B90120754908700820207081
:100B700000BF80217148FFF7DDFE0028F9D006E0B4
:100B800000206F490870FF216C48FFF7E0FEFB2151
:100B90006A48FFF7DCFE10216848FFF7CBFE78B10A
:100BA00020216648FFF7C6FE50B140216348FFF799
:100BB000C1FE28B180216148FFF7BCFE002851D159
:100BC0000A2001F0BFF910215C48FFF7B3FE60B9BD
:100BD00001205B4908700920207000BF1021574890
:100BE000FFF7A8FE0028F9D03CE020215348FFF78A
:100BF000A1FE60B90120524908700A20207000BF90
:100C000020214E48FFF796FE0028F9D02AE0402127
:100C10004A48FFF78FFE60B90120494908700B2050
:100C2000207000BF40214548FFF784FE0028F9D01E
:100C300018E080214148FFF77DFE60B9012040495E
:100C400008700C20207000BF80213C48FFF772FE26
:100C50000028F9D006E0002039490870FF21374804
:100C6000FFF775FEF7213548FFF771FE1021334875
:100C7000FFF760FE70B120213048FFF75BFE48B1FE
:100C800040212E48FFF756FE20B180212B48FFF768
:100C900051FE28BB0A2001F055F910212748FFF723
:100CA00049FE60B90120264908700D20207000BF60
:100CB00010212248FFF73EFE0028F9D03CE0202119
:100CC0001E48FFF737FE60B901201D4908700E204D
:100CD000207000BF20211948FFF72CFE0028F9D012
:100CE0002AE040211548FFF725FE60B9012014498C
:100CF00008700F20207000BF40211048FFF71AFE37
:100D00000028F9D018E080210C48FFF713FE60B9E5
:100D100001200B4908701020207000BF8021074877
:100D2000FFF708FE0028F9D006E00020044908700B
:100D3000FF210248FFF70BFE10BD00000008014034
:100D40002A00002010B502460120002302E0504393
:100D50005C1CE3B28B42FADB10BD2DE9F04705467F
:100D60000E4617469846012D05D1711E41F08000B0
:100D700000F092F807E0022D05D106F13F0141F0A5
:100D8000800000F089F8444611E0611E0A20FFF758
:100D9000D9FFB7FBF0F00A21B0FBF1F201FB120022
:100DA00000F13009484600F0A3F8601EC4B2002CE0
:100DB000EBDCBDE8F087000008B50121042000F05D
:100DC00023F90320ADF8000010208DF80300032064
:100DD0008DF8020069460648FFF7D9FC0121044856
:100DE000FFF7B1FD02210248FFF7AFFD08BD00008B
:100DF000000801402DE9F04105460E461746002443
:100E0000022D00D1403406F17F000444204600F05A
:100E100043F8384600F06CF8BDE8F08170B506463E
:100E20000D46144607E0227829463046FFF7E2FFD8
:100E3000681CC5B2641C20780028F4D170BD10B5C0
:100E400000F014F80F2001F07DF8382000F024F8AD
:100E50000C2000F021F8062000F01EF8012000F020
:100E60001BF8802000F018F810BD000008B5012123
:100E7000082000F0C9F814208DF803004FF6077021
:100E8000ADF8000003208DF8020069460148FFF725
:100E90007EFC08BD000C014010B50446002011493D
:100EA00008601149C1F888010E49091F0860240231
:100EB0000E480068C0B204F47F4108430B49086043
:100EC000022001F065F801200749C1F880010220E5
:100ED00001F05EF800200349091F08600F2001F0AF
:100EE00031F810BD84812142008021420C0C014068
:100EF00010B5044601201249086000201149C1F8CC
:100F000088010F49091F086024020F480068C0B219
:100F100004F47F4108430C490860022001F038F8CE
:100F200001200849C1F88001022001F031F80020B9
:100F30000349091F08600F2001F004F810BD0000EC
:100F400084812142008021420C0C014000BFFEE759
:100F50007047000070B5002100230F22C47804B34D
:100F6000154C246804F4E064C4F5E064210AC1F17E
:100F70000403CA40447804FA03F1847814402143FE
:100F800009010E4C0678A155047804F01F050124D0
:100F9000AC4005786D11AD0005F1E025C5F80041C4
:100FA00009E0047804F01F050124AC40044D0678E4
:100FB000761145F8264070BD0CED00E000E400E03D
:100FC00080E100E002490143024A116070470000DD
:100FD0000000FA050CED00E00149086270470000CE
:100FE00000000E427047000029B1064AD269024350
:100FF000044BDA6104E0034AD2698243014BDA61AF
:10100000704700000010024029B1064A926902436D
:10101000044B9A6104E0034A92698243014B9A614E
:10102000704700000010024001490860704700004E
:101030004004424230B500210022002400232D4DFF
:101040006D6805F00C0121B1042905D0082923D1D0
:1010500005E0294D056022E0274D05601FE0254D84
:101060006D6805F47012234D6D6805F48034022517
:1010700005EB92421CB9214D554305600BE01D4D17
:101080006D6805F400351DB11C4D5543056002E047
:10109000194D5543056002E0174D056000BF00BFC4
:1010A000144D6D6805F0F0010909154D6B5C05687C
:1010B000DD4045600F4D6D6805F4E061090A104D93
:1010C0006B5C4568DD4085600A4D6D6805F46051D4
:1010D000C90A0B4D6B5C4568DD40C560054D6D6808
:1010E00005F44041890B074D6B5CC568B5FBF3F512
:1010F000056130BD0010024000127A0000093D0079
:10110000100000202000002010B50146002200231E
:1011100000204A11012A02D1094C236806E0022A64
:1011200002D1074C236A01E0054C636A01F01F02FB
:10113000012494401C400CB1012000E0002010BDAF
:101140000010024000210B4A11700A4A203A82F82E
:101150002010012802D0042808D103E00121054A0B
:10116000117004E00521034A117000E000BF00BFC8
:1011700070470000201002400149086070470000DD
:101180003C0442420249096A0143014A1162704724
:1011900000100240024909888143014A11807047CA
:1011A000042800400348008840F0100001490880EE
:1011B0007047000004280040034800884FF6EF7194
:1011C00008400149088070470428004070B5002697
:1011D0000024002500F07AF806463848B6FBF0F403
:1011E00037480088A0423CD035490C8040F2B275A7
:1011F00010E02846FFF7AFFB40B1B4F5B77F02D34C
:10120000A4F5B77404E0681C85B206E0A4F26D147E
:10121000681C85B2B4F5B67FEBD800BF294885803D
:10122000002516E027498888FFF795FB30B1012D8E
:1012300004D11D2C01D31D3C09E00CE02248405D87
:10124000A04203D82048405D241A00E003E0681C57
:1012500085B21C2CE6D200BF681C1A498871601C3C
:10126000C8711648B6FBF0F100FB11644FF46160E1
:10127000B4FBF0F0134908704FF46160B4FBF0F177
:1012800000FB11403C21B0FBF1F00E4948704FF4D7
:101290006160B4FBF0F100FB11403C21B0FBF1F2C6
:1012A00001FB1200074988700B46DA799979988812
:1012B00000F028F803490872002070BD8051010039
:1012C00024000020340000201429000800210348D5
:1012D0000188001F008841EA004070471C28004038
:1012E00001460020064A12880A40D0B2044A121F62
:1012F00012880A4012B108B1012000E000207047B6
:1013000004280040F0B503460C461546642093FBC4
:10131000F0F0C6B2642093FBF0F700FB1730C1B2C7
:10132000132E02DD01F16400C1B20846CF1701EBB4
:10133000977701EBA707BAB2072092FBF0F700FB03
:10134000172082B25719601EDFF82CC01CF800006D
:10135000384482B2CF1701EB9777BF10A1EB870714
:101360001FB9032C01DA501E82B2072092FBF0F75E
:1013700000FB1720C0B2F0BD082900080EB50120FF
:10138000FFF7AEFF88B1FFF721FF174880781649B5
:101390004978154A1278CDE9002102901248C379A4
:1013A0008279818811A000F003FD0220FFF798FFE9
:1013B000A0B10220FFF7EEFEFFF708FF0A48807891
:1013C00009494978084A1278CDE900210290064877
:1013D000C379827981880CA000F0EAFC0520FFF730
:1013E000D9FE00F0C7F90EBD34000020525443204E
:1013F00054696D653A25642D25642D256420256486
:101400003A25643A25640A00416C61726D20546982
:101410006D653A25642D25642D25642025643A25C3
:10142000643A25640A00000029B1064A1288024382
:10143000044B1A8004E0034A12888243014B1A804D
:1014400070470000002800401CB5002401214FF027
:10145000C050FFF7C9FD0120FFF7BEFD0420FFF7D4
:1014600049F84AF2A001884240D0FFF73AF801203B
:10147000FFF768FE04E0601CC4B20A2000F062FDC1
:101480004120FFF741FE08B9FA2CF4DBFA2C01DB0E
:1014900001201CBD4FF48070FFF774FE0120FFF7A0
:1014A0006BFE00F067F900F06FF901210846FFF7C5
:1014B000BBFF00F05FF9FFF775FE47F6FF7000F025
:1014C000A5F800F057F93720222111231622CDE983
:1014D0000010032140F2E17000F026F8FFF76CFEE7
:1014E0004AF2A0010420FFF713F807E000F04CF9DE
:1014F00001210846FFF798FF00F03CF900F004F8DE
:10150000FFF764FE0020C4E708B503208DF8000053
:1015100000208DF801008DF8020001208DF80300F5
:101520006846FFF717FD08BD2DE9F05F06460F4638
:1015300090469946DDE90AAB002440F2B27086423B
:1015400003DB40F63300864202DD0120BDE8F09F58
:1015500040F2B2750AE02846FFF7FDF910B12048C5
:10156000044401E01F480444681C85B2B542F2DB24
:10157000781EC7B2002510E01B48405D40F2A32151
:10158000484304EBC0143046FFF7E5F918B1012DCC
:1015900001D116480444681C85B2BD42ECDBA8F1B9
:1015A000010040F2A321484304EBC014C9EB4910E9
:1015B000C0EB092004EB0014CAEB0A1004EB800412
:1015C0005C4401214FF0C050FFF70EFD0120FFF7F2
:1015D00003FD204600F00CF800F0CCF80020B5E741
:1015E0000085E2018033E1011429000880510100E7
:1015F00000B50246FFF7D6FD100C03490880091D0F
:101600000A80FFF7D9FD00BD1828004000B502464A
:10161000FFF7C8FDC2F3034003490880091D0A8093
:10162000FFF7CAFD00BD00000828004070B5002685
:1016300000240025FFF74AFE06464A48B6FBF0F4B0
:1016400049480088A0423DD047490C804FF4F765D7
:1016500010E02846FFF77FF940B1B4F5B77F02D319
:10166000A4F5B77404E0681C85B206E0A4F26D141A
:10167000681C85B2B4F5B67FEBD800BF3B488580C7
:101680000625E41F16E039498888FFF764F930B170
:10169000012D04D11D2C01D31D3C09E00CE0344880
:1016A000405DA04203D83248405D241A00E003E0C8
:1016B000681C85B21C2CE6D200BF681C2B498871BF
:1016C000601CC8712748B6FBF0F100FB116042F6C0
:1016D0003021084400F62C344FF46160B4FBF0F084
:1016E000224908704FF46160B4FBF0F100FB114037
:1016F0003C21B0FBF1F01D4948704FF46160B4FB30
:10170000F0F100FB11403C21B0FBF1F201FB1200B3
:10171000164988700B46DA7999799888FFF7F2FDB7
:101720001249087208460278022305210120FFF7BA
:1017300014FB0E484278022308210120FFF70DFB1D
:101740000A48827802230B210120FFF706FB3A2288
:1017500007210120FFF74EFB3A220A210120FFF763
:1017600049FB70BD8051010028000020340000209A
:101770001429000800BF0348008800F0200000285A
:10178000F9D0704704280040074800884FF6F771E9
:1017900008400549088000BF0348008800F00800A1
:1017A0000028F9D0704700000428004070B50026DA
:1017B00000240025FFF78AFD06465A48B6FBF0F4E0
:1017C00059480088A0423DD057490C804FF4F76536
:1017D00010E02846FFF7BFF840B1B4F5B77F02D359
:1017E000A4F5B77404E0681C85B206E0A4F26D1499
:1017F000681C85B2B4F5B67FEBD800BF4B48858036
:101800000625E41F16E049498888FFF7A4F830B19F
:10181000012D04D11D2C01D31D3C09E00CE04448EE
:10182000405DA04203D84248405D241A00E003E036
:10183000681C85B21C2CE6D200BF681C3B4988712D
:10184000601CC8713748B6FBF0F100FB116042F62E
:101850003021084400F62C344FF46160B4FBF0F002
:10186000324908704FF46160B4FBF0F100FB1140A5
:101870003C21B0FBF1F02D4948704FF46160B4FB9E
:10188000F0F100FB11403C21B0FBF1F201FB120032
:10189000264988700B46DA7999799888FFF732FDE6
:1018A0002249087208460278022301211846FFF7F0
:1018B00054FA1E484278022304211846FFF74DFAD5
:1018C0001A488278022307211846FFF746FA17487C
:1018D0008288022301210846FFF73FFA13488279E4
:1018E000022304210120FFF738FA1048C2790223AD
:1018F00007210120FFF731FA3A2203210220FFF7E6
:1019000079FA3A2206210220FFF774FA2D220321E8
:101910000120FFF76FFA2D2206210120FFF76AFA56
:1019200070BD00008051010026000020340000201E
:1019300014290008704710B500F002F810BD00002F
:101940000CB50020019000903348006840F48030CE
:101950003149086000BF3048006800F40030009052
:101960000198401C0190009818B90198B0F5A06F3B
:10197000F1D12948006800F4003010B10120009036
:1019800001E0002000900098012843D1234800681E
:1019900040F01000214908600846006820F003006C
:1019A00008600846006840F0020008601A48406875
:1019B000194948600846406848600846406840F455
:1019C000806048600846406820F47C104860084603
:1019D000406840F4E81048600846006840F08070B5
:1019E000086000BF0C48006800F000700028F9D0C3
:1019F0000948406820F003000749486008464068ED
:101A000040F00200486000BF0348406800F00C004E
:101A10000828F9D10CBD000000100240002002404F
:101A2000042808D14FF0E021096941F004014FF08A
:101A3000E022116107E04FF0E021096921F0040183
:101A40004FF0E022116170477047000010B5044666
:101A50006FF00400FFF7E4FFE11704EB5171C1F3ED
:101A6000C701074A11701046007800EB4001C1EB36
:101A7000C0104FF6FF7101EAC0000249088010BD96
:101A80002C0000202E00002010B51348006840F004
:101A900001001149086008464068104908400E4995
:101AA0004860084600680E4908400B49086008462F
:101AB000006820F4802008600846406820F4FE009A
:101AC00048604FF41F008860FFF735FF4FF000605B
:101AD0000449086010BD0000001002400000FFF83B
:101AE000FFFFF6FE08ED00E010B540F225510C486E
:101AF00000F096F870B10A4800F04EF9C4B22146E1
:101B0000074800F04EF900BF4021054800F07BF87F
:101B10000128F9D14021024800F060F810BD000012
:101B20000038014010B586B0044601210420FFF7BB
:101B30006BFA01218803FFF767FA01210846FFF7D6
:101B400063FA4FF40070ADF8140003208DF816000E
:101B500018208DF8170005A91E48FEF718FE4FF44F
:101B60008060ADF8140004208DF8170005A919480D
:101B7000FEF70DFE01940020ADF80800ADF80A0054
:101B8000ADF80C00ADF810000C20ADF80E0001A966
:101B9000114800F095F801210F4800F028F8402185
:101BA0000D4800F01BF8012240F225510A4800F0D0
:101BB00061F825208DF8000003208DF801008DF8D4
:101BC000020001208DF803006846FFF7C3F906B054
:101BD00010BD0000000801400038014001F400720F
:101BE000B2F5007F00D100BFCA430280704721B127
:101BF000828942F40052828104E082894DF6FF73AB
:101C00001A408281704702460020B1F5007F00D162
:101C100000BF13880B400BB1012000E0002070478B
:101C200070B50246002400230025002040F66A1605
:101C3000B14200D100BFC1F3421501F01F030126DC
:101C400006FA03F3012D02D19689334006E0022DF6
:101C500002D1168A334001E0968A33400C120126E5
:101C600006FA04F41688344013B10CB1012000E0E8
:101C7000002070BDF0B5034600240026002500209A
:101C800040F66A17B94200D100BF1846C1F34214AA
:101C900001F01F06012707FA06F5012C01D10C30CF
:101CA00004E0022C01D1103000E014301AB10768B2
:101CB0002F43076002E00768AF430760F0BD0000F4
:101CC0002DE9F04786B005460E460024A24600BF27
:101CD000A1460027B08900B100BF2F462C8A4CF6E0
:101CE000FF700440F08804432C82AC894EF6F31058
:101CF0000440B08831890843718908430443AC81AA
:101D0000AC8A4FF6FF400440B0890443AC8201A87E
:101D1000FFF790F91F48874202D1DDF810A001E0DB
:101D2000DDF80CA0A88900F4004040B10AEBCA001D
:101D300000EB0A1031684900B0FBF1F807E00AEB4C
:101D4000CA0000EB0A1031688900B0FBF1F864208A
:101D5000B8FBF0F004012009642101FB1089A88977
:101D600000F4004040B1322000EBC900B0FBF1F0BC
:101D700000F00700044308E0322000EB0910642162
:101D8000B0FBF1F000F00F0004432C8106B0BDE879
:101D9000F08700000038014001468888C0F3080041
:101DA0007047C1F308028280704700BFFEE7000061
:101DB0000FB4054B10B503A9044A029800F018F8B7
:101DC00010BC5DF814FB0000DD1F0008300000208F
:101DD00002E008C8121F08C1002AFAD170477047F4
:101DE000002001E001C1121F002AFBD17047000052
:101DF0002DE9FF4F89B09B460446002506E02528C3
:101E00000BD05A460B999047641C6D1C2078002813
:101E1000F5D10DB02846BDE8F08F0027B846012265
:101E2000474900E0074314F8013F203B02FA03F062
:101E30000842F7D120782E2819D114F8010F47F065
:101E400004072A280ED06FF02F022078A0F130016D
:101E500009290CD808EB880102EB410100EB0108CD
:101E6000641CF2E70A98641C50F8048B0A902078EE
:101E70000028CED0642808D0692806D075281ED046
:101E80005A460B9990476D1C58E00A994FF00A0981
:101E900001C90A91002802DA40422D2102E03905E9
:101EA00004D52B218DF82010012103E0F90704D07F
:101EB0002021F7E78A4608AE0DE00021FAE70A99EB
:101EC0004FF00A0901C90A91F7E74946FEF72DFAD2
:101ED000303106F8011D0028F7D1ADEB060000F106
:101EE0002009780701D44FF00108C84502DDA8EBAE
:101EF000090000E000208046002706E008A85A46B6
:101F0000C05D0B9990476D1C7F1C5745F6DB04E0C4
:101F100030205A460B9990476D1CB8F10001A8F18A
:101F20000108F5DC05E016F8010B5A460B999047BD
:101F30006D1CB9F10001A9F10109F4DC641C65E72D
:101F4000092801000146114A12884A434FF0E02354
:101F50005A6100229A611A46126942F001021A611E
:101F600000BF4FF0E022106900F001021AB100F446
:101F70008032002AF5D04FF0E022126922F00102EF
:101F80004FF0E0231A6100229A6170472E00002072
:101F90000146114A12784A434FF0E0235A61002269
:101FA0009A611A46126942F001021A6100BF4FF0AD
:101FB000E022106900F001021AB100F48032002A18
:101FC000F5D04FF0E022126922F001024FF0E02339
:101FD0001A6100229A6170472C00002070B50446F7
:101FE0000D46E1B20548FFF7DCFE00BF8021034843
:101FF000FFF709FE0028F9D0204670BD00380140E7
:1020000008B5002401210820FEF7FEFF2020ADF8CE
:10201000000010208DF8030003208DF802006946AF
:10202000FB48FEF7B4FB4820FFF710FD4FF4A0601B
:10203000FEF7C8FFFEF7C0FEFEF701FF4FF4165093
:10204000FFF770FD03E04FF4FA70FFF77BFFFEF738
:10205000F9FA0028F7D1FFF7F7F9FEF799FCEDA29E
:1020600001210846FEF7DAFEECA20A210120FEF764
:10207000D5FEECA201210220FEF7D0FE2AE3ED48B6
:10208000FEF7AEFCEC4800780128F7D10020EA49C1
:102090000870E8480078012839D1E8A201210846F3
:1020A000FEF7BCFEE5A201210220FEF7B7FE2CE000
:1020B0000020E0490870FFF779FBDE48FEF790FC4E
:1020C000DD480078012820D10020DB490870D9487C
:1020D0000078042819D1D9A201210846FEF79EFEF6
:1020E000D6A201210220FEF799FECAA201210846CC
:1020F000FEF794FEC9A20A210120FEF78FFEC9A2B5
:1021000001210220FEF78AFE00E0D1E700BFC948A6
:102110000078022875D1C9A201210846FEF77EFE8B
:10212000C6A201210220FEF779FEC9A201210846BC
:10213000FEF774FEC8A201210220FEF76FFE4EE2F8
:102140000020BC4908700846FEF74AFCBA480078EF
:102150000128F4D10020B8490870B6480078012859
:102160007ED10020B3490870B4A201210220FEF7FD
:1021700055FE4FE0BA480223052102681846FEF7D3
:10218000ECFDB7480223082142681846FEF7E5FD3A
:10219000B34802230B2182681846FEF7DEFD3A227F
:1021A00007210220FEF726FE3A220A210220FEF72E
:1021B00021FEA1480078012824D100209E49087002
:1021C0009C48007804281DD100209A4908709BA2E1
:1021D00001210846FEF722FE98A201210220FEF707
:1021E0001DFE8CA201210846FEF718FE8BA20A21D3
:1021F0000120FEF713FE8BA201210220FEF70EFE46
:1022000014E0EEE100F0A8FA00F086FA4FF47A70DC
:10221000FFF798FE924880680028ABD1904840684C
:102220000028A7D18E4800680028A3D100BF8C48A1
:102230000223052102681846FEF78FFD8848022315
:10224000082142681846FEF788FD854802230B21C5
:1022500082681846FEF781FD3A220721022000E03D
:1022600053E0FEF7C7FD3A220A210220FEF7C2FD25
:1022700035E07048FEF7B4FB6F48007801280DD1B7
:1022800000206D4908706B480078042806D10020B2
:102290006849087005207249886021E0641C0A20A2
:1022A00094FBF0F100FB114038B96E48006808B9A2
:1022B000012000E000206B49086044F6206094FB98
:1022C000F0F100FB114038B96748006808B90120F7
:1022D00000E00020644908600A20FFF759FEC8E7C3
:1022E00000BF56A201210846FEF798FD53A2012126
:1022F0000220FEF793FD56A201210846FEF78EFD4F
:1023000055A201210220FEF789FD4A4800780228E3
:102310007DD100204749087054A201210846FEF7EC
:102320007DFD52A201210220FEF778FDFFF77EF924
:1023300053A201210846FEF771FD53A2012102209C
:10234000FEF76CFD3A2207210220FEF753FD3A22E8
:102350000A210220FEF74EFD4148022305210268B2
:102360001846FEF7FAFC3E48022308214268184648
:10237000FEF7F3FC3A4802230B2182681846FEF769
:10238000ECFC8AE036480223052102681846FEF775
:10239000E4FC33480223082142681846FEF7DDFCBE
:1023A0002F4802230B2182681846FEF7D6FC3A22FA
:1023B00007210220FEF71EFD3A220A210220FEF725
:1023C00019FDFFF733F91B48FEF70AFB1A4800789E
:1023D000012860D1002018490870164800780428A8
:1023E00059D100201349087014A201210846FEF7B4
:1023F00015FD12A201210220FEF710FD14A20121F9
:102400000846FEF70BFD14A20121022040E0C0E0C7
:10241000000C0140312E74696D650000322E636C32
:102420006F636B00332E74656D70657261747572C5
:1024300065000000000000202A000020202020204D
:1024400020202020202020202020202020202000AC
:10245000312E74696D657200322E616C61726D008F
:10246000040000209481214280012142202020206C
:1024700020202020202020202020202000000000DC
:102480004E6F773A00000000456E643A000000008D
:10249000FEF7C4FC14E000F05FF98F4800688F4934
:1024A000097888427FF46EAF8B4840688B49497841
:1024B0008842F7D188488068884989788842F1D174
:1024C00000BF53E000F048F9AFF290020121084646
:1024D000FEF7A4FC82A203210120FEF79FFC8448A2
:1024E000FEF77EFA8248007804281ED10020804939
:1024F0000870052078498860AFF2C00201210846C3
:10250000FEF78CFCAFF2CC0201210220FEF786FC24
:10251000AFF2C40201210846FEF780FCAFF2C80208
:1025200001210220FEF77AFC32E0641C0A2094FBB1
:10253000F0F100FB114038B96E48006808B901207D
:1025400000E000206B49086044F6206094FBF0F145
:1025500000FB114038B96848006808B9012000E064
:102560000020654908606420FFF7ECFC5A480068C9
:102570005A49097888420BD15748406857494978E9
:10258000884205D15448806854498978884299D056
:1025900000BF57480078042821D100205449087012
:1025A000AFF2681201210846FEF738FCAFF2741250
:1025B00001210220FEF732FCAFF2A81201210846E9
:1025C000FEF72CFCAFF2AC120A210120FEF726FC2C
:1025D000AFF2B01201210220FEF720FC00E0AFE5CF
:1025E00000BF002442480078032873D100204049EE
:1025F0000870AFF2881201210846FEF70FFCAFF217
:10260000941201210220FEF709FC3CA20121084698
:10261000FEF704FC5CE0FDF7B3FF064637A201219C
:102620000846FEF7FBFB3046FDF74FFE0546032349
:102630002A4602210846FEF790FB2E2205210220A1
:10264000FEF7D8FB31493046FDF78EFD0746FDF712
:102650003CFE42F21071B0FBF1F201FB12050323C4
:102660002A4606210220FEF778FB29A20921022032
:10267000FEF7D4FB1E48FEF7B3F926480078012880
:1026800026D10020234908701948007804281FD15A
:10269000AFF2582201210846FEF7C0FBAFF26422D8
:1026A00001210220FEF7BAFBAFF298220121084671
:1026B000FEF7B4FBAFF29C220A210120FEF7AEFB2D
:1026C000AFF2A02201210220FEF7A8FB01E001E009
:1026D000A1E700BFD3E40000040000203400002084
:1026E00054696D6520697320757021210000000018
:1026F00000000020948121428001214254656D70C8
:10270000657261747572653A0000000000401C46F5
:10271000274300002A0000200E48806898B90D4821
:102720004068401E0B4948603C208860084640686D
:1027300070B90846006858B108460068401E086035
:102740003C20486004E003488068401E01498860DE
:10275000704700000400002038B5002000900025DC
:102760006846FEF73DF95C48007801287ED10020DC
:10277000594908709DF800000528F7D1062400206B
:10278000009056A201210220FEF748FB58A2012129
:102790000220FEF743FB9AE0E1B25F220220FEF73F
:1027A00029FB6420FFF7CEFB56480223052102686F
:1027B0001846FEF7D2FA5348022308214268184609
:1027C000FEF7CBFA4F4802230B2182681846FEF72A
:1027D000C4FA6846FEF704F93F480078012876D12C
:1027E00000203D4908709DF80000062814D1002003
:1027F00000900C2C00D10524062C00D10824062CB6
:1028000000D10824092C00D10B24052C03D00B2C5B
:1028100001D0082C00D1641C9DF80000012827D1AC
:10282000062C03D0092C01D00C2C0AD1032094FBD8
:10283000F0F0851E334850F82500401C314941F81E
:102840002500052C04D12F4800680A302D49086066
:10285000082C04D12B4840680A302A4948600B2CC8
:1028600006D1284880680A30264900E032E08860B6
:102870009DF80000022825D1062C03D0092C01D098
:102880000C2C0AD1032094FBF0F0851E1D4850F853
:102890002500401E1B4941F82500052C04D119488C
:1028A00000680A3817490860082C04D115484068A8
:1028B0000A38144948600B2C04D1124880680A3841
:1028C000104988609DF80000082800D100E063E707
:1028D00000BF00BF38BD00002A00002020202020BB
:1028E0002020202020202020202020202020200008
:1028F0002020202030303A30303A30302020202044
:10290000202020000400002000030306010406022A
:10291000050003051F1C1F1E1F1E1F1F1E1F1E1F3D
:10292000402900080000002034000000D01D0008ED
:1029300074290008340000200C040000E01D000889
:102940000000000000000000000000000A0000007D
:102950000000000001020304010203040607080945
:102960000204060800000000000000000000000053
:042970000000000063
:0400000508000131BD
:00000001FF
